:100000000C943C020C94BC180C9495180C946E182B
:100010000C9447180C9464020C9464020C942018FD
:100020000C9464020C9438190C9435150C94A41596
:100030000C9464020C9464020C9464020C946402A8
:100040000C9464020C94E3180C9464020C94640203
:100050000C9464020C9464020C9464020C94D61701
:100060000C9464020C9464020C9464020C94640278
:100070000C9464020C9464020C9464020C94640268
:100080000C9464020C9464020C9464020C94640258
:100090000C949F190C9464020C9464020C946402F6
:1000A0000C9464020C9464020C946402084AD73BDA
:1000B0003BCE016E84BCBFFDC12F3D6C74319ABD37
:1000C00056833DDA3D00C77F11BED9E4BB4C3E915B
:1000D0006BAAAABE000000803F00AED580A83FD327
:1000E00000408D142002A1C8DA12817FD9F1DB40D3
:1000F000A4A6AF070605040100080A0B0C0D0900B1
:10010000030C0F30333C3FC0C3CCCFF0F3FCFF00F7
:100110000000002300260029002C002F000000050D
:10012000072061000000000000005F0000000700E1
:100130000700147F147F14242A7F2A1223130864D3
:100140006236495522500005030000001C22410080
:100150000041221C00082A1C2A0808083E08080042
:1001600050300000080808080800606000002010F7
:100170000804023E5149453E00427F400042615121
:1001800049462141454B311814127F1027454545FA
:10019000393C4A4949300171090503364949493614
:1001A000064949291E003636000000563600000078
:1001B00008142241141414141441221408000201DA
:1001C000510906324979413E7E1111117E7F49491C
:1001D00049363E414141227F4141221C7F494949E4
:1001E000417F090901013E414151327F0808087FE2
:1001F00000417F41002040413F017F081422417FA0
:10020000404040407F0204027F7F0408107F3E414F
:1002100041413E7F090909063E4151215E7F09198E
:100220002946464949493101017F01013F4040408B
:100230003F1F2040201F7F2018207F631408146375
:100240000304780403615149454300007F414102A2
:100250000408102041417F000004020102044040D4
:10026000404040000102040020545454787F484428
:1002700044383844444420384444487F3854545423
:1002800018087E090102081454543C7F08040478BD
:1002900000447D40002040443D00007F1028440081
:1002A000417F40007C041804787C080404783844BA
:1002B0004444387C14141408081414187C7C080472
:1002C00004084854545420043F4440203C404020FB
:1002D0007C1C2040201C3C4030403C4428102844DA
:1002E0000C5050503C4464544C44000836410000CB
:1002F000007F0000004136080008082A1C08081C7E
:100300002A08080006090906DA00198040000000E2
:100310000000240027002A002D003000000000000B
:10032000250028002B002E003100040404040403DF
:100330000405020202020403020202020606060685
:1003400006060404020202040404080201104080AC
:1003500040102040804080080204018040201002AC
:1003600001108010204040200000000200090F0012
:1003700000030401000C0000000000000000000069
:100380000000000000000076302E382E3500546149
:1003900070436C6F636B00080B00020202000009DF
:1003A00004000001020200000524001001052401E0
:1003B000010104240206052406000107058103103B
:1003C000004009040100020A000000070502024083
:1003D0000000070583024000000403090412010025
:1003E00002EF020140412336800001010203014176
:1003F000726475696E6F204C4C430041726475697C
:100400006E6F204C656F6E6172646F0000000507AF
:10041000201500000000000F057A10780E057E10F0
:10042000787E4343437E7E6363637E7E7373737E15
:100430007E7B7B7B7E7E7F7F7F7E707C7E7F7F7FEF
:100440007F7E7C707F7F7F7F7F071F3F7F7F7F7FE7
:100450003F1F0738266126384060707C7E3F1F07AB
:1004600003013E7F7F7F3E1C3E3E3E1C002020500D
:10047000207060550307BE1A11241FBECFEFDAE0CB
:10048000DEBFCDBF13E0A0E0B1E0EAEFF5E602C0C9
:1004900005900D92A43FB107D9F726E0A4EFB3E091
:1004A00001C01D92A133B207E1F712E0CCE3D2E024
:1004B00004C02197FE010E94C82FCB33D107C9F792
:1004C0000E944E1B0C94FB320C940000089508957A
:1004D00090932C0680932B06009751F0FC012491F9
:1004E0003196E491F22F319719F41092270608956E
:1004F00081E080932706089591E0909334058093DE
:1005000055051092AC051092AB0508959091AE057B
:100510008091AD052FEF3FEF981748F4E92FF0E0F9
:10052000E851FB4F208130E09F5F9093AE05C901F9
:1005300008959091AE058091AD052FEF3FEF98178C
:1005400048F4E92FF0E0E851FB4F208130E09F5F55
:100550009093AE05C90108958091AD059091AE05C7
:10056000891B990B0895FC018091E704882311F100
:100570003FB7F89482E08093E9002091F200822F47
:1005800090E01816190614F481E090E0882339F001
:10059000289844E64093E6044091F10040832223EA
:1005A00039F02091F200211103C02BE62093E800DE
:1005B0003FBF08958FEF9FEF08952FB7F89483E022
:1005C0008093E9009091E800892F807295FF04C024
:1005D0009091F20080E4891B2FBF08958091DE0482
:1005E00081110DC082E08093DA0484E08093DB0403
:1005F0001092DD041092DC0481E08093DE048AED29
:1006000094E00895CF93DF931F92CDB7DEB769834F
:10061000DC01ED91FC910280F381E02D41E050E09E
:10062000BE016F5F7F4F09950F90DF91CF910895C5
:1006300083E08093E9008091F200882319F08AE337
:100640008093E80008950E94DD0290E00895CF9322
:10065000DF931F92CDB7DEB7FC018485958597FDAA
:1006600008C02FEF3FEF358724870F90DF91CF91A0
:100670000895CE0101960E94B302019719F4898171
:1006800090E0F3CF8FEF9FEFF0CF0F931F93CF93B7
:10069000DF931F92CDB7DEB78C01FC018485958571
:1006A00097FF0BC0CE0101960E94B302019771F42F
:1006B000898190E0F80195878487F8018485958584
:1006C0000F90DF91CF911F910F9108958FEF9FEFC2
:1006D000F1CFFC018485958597FD0BC09FB7F894F9
:1006E00082E08093E9008091F2009FBF90E0019644
:1006F00008959FB7F89482E08093E9008091F2001A
:100700009FBF90E008954091D4045091D50420916A
:10071000D2043091D30442175307B4F49091E80007
:100720009570E1F39091E80092FD19C08093F1007B
:100730008091D4049091D50401968F739927892BC9
:1007400019F48EEF8093E8008091D4049091D50441
:1007500001969093D5048093D40481E0089580E0BD
:100760000895EF92FF920F931F93CF93DF93F82E8C
:10077000192FE62E042F81E0860F880F0E94830335
:1007800083E00E948303CF2DD12FEC0EFD2EF11CB0
:10079000CE15DF05B9F007FF13C0FE0184910E945A
:1007A0008303182F80E00E94830381232196811107
:1007B000EFCFDF91CF911F910F91FF90EF900895B0
:1007C0008881EDCF81E0F5CFDF92EF92FF920F931A
:1007D0001F93CF93DF93D82E8A01EB017B01E40EA8
:1007E000F51ECE15DF0559F0D7FE12C0FE0184912B
:1007F0000E94830321968111F4CF0FEF1FEFC801F0
:10080000DF91CF911F910F91FF90EF90DF900895AE
:100810008881EECF0F931F93CF93DF931F92CDB7B5
:10082000DEB782E0898342E450E067E973E080E864
:100830000E94E4030E94EE02DC0112960D911C91CD
:100840000115110589F0D801ED91FC910280F38129
:10085000E02DBE016F5F7F4FC801099597FD04C071
:10086000F80100851185ECCF89810F90DF91CF9140
:100870001F910F910895615030F02091F100FC011B
:1008800020830196F8CF289884E68093E6040895A3
:1008900008950895AF92BF92CF92DF92EF92FF92A8
:1008A0000F931F93CF93DF936C017B018B01040F98
:1008B000151FEB015E01AE18BF08C017D10759F034
:1008C0006991D601ED91FC910190F081E02DC60176
:1008D0000995892B79F7C501DF91CF911F910F9170
:1008E000FF90EF90DF90CF90BF90AF900895815030
:1008F0008F3008F047C0E82FF0E0EF57FB4F0C9423
:10090000C82F9E04A204900496049A04C204C20450
:10091000C204A504AB04AF04B304B904C204BD040B
:10092000809180008F77809380000895809180006F
:100930008F7DF9CF80918000877FF5CF84B58F7749
:1009400084BD089584B58F7DFBCF809190008F7713
:10095000809390000895809190008F7DF9CF8091D1
:100960009000877FF5CF8091C0008F778093C00083
:1009700008958091C0008F7DF9CF8091C200877F5C
:100980008093C2000895CF93DF93282F30E0F901C0
:10099000E859FC4F8491F901E75BFC4FD491F901D0
:1009A000E65DFC4FC491CC23A1F081110E94770435
:1009B000EC2FF0E0EE0FFF1FE15FFE4FA591B49129
:1009C000EC91ED2381E090E009F480E0DF91CF919C
:1009D000089580E090E0FACF1F93CF93DF93282F04
:1009E00030E0F901E859FC4F8491F901E75BFC4FD5
:1009F000D491F901E65DFC4FC491CC23A9F0162FE8
:100A000081110E947704EC2FF0E0EE0FFF1FE45EEF
:100A1000FC4FA591B4918FB7F894EC91111108C0D7
:100A2000D095DE23DC938FBFDF91CF911F91089586
:100A3000DE2BF8CFCF93DF9390E0FC01E75BFC4F18
:100A40002491865D9C4FFC0184918823C9F090E03D
:100A5000880F991FFC01E25FFC4FA591B491FC0146
:100A6000E45EFC4FC591D49161110DC09FB7F8941D
:100A70008C91209582238C938881282328839FBF83
:100A8000DF91CF910895623051F49FB7F8943C9173
:100A9000822F809583238C93E8812E2BEFCF8FB705
:100AA000F894EC912E2B2C938FBFEACF3FB7F8949C
:100AB0008091440490914504A0914604B09147046C
:100AC00026B5A89B05C02F3F19F00196A11DB11DA9
:100AD0003FBFBA2FA92F982F8827BC01CD01620FE5
:100AE000711D811D911D42E0660F771F881F991FA0
:100AF0004A95D1F708958F929F92AF92BF92CF926D
:100B0000DF92EF92FF924B015C010E9456056B0150
:100B10007C010E9456056C197D098E099F09683E6B
:100B2000734081059105A8F321E0821A9108A1087C
:100B3000B10888EEC80E83E0D81EE11CF11C8114B8
:100B40009104A104B10429F7FF90EF90DF90CF90BA
:100B5000BF90AF909F908F9008958F929F92AF9289
:100B6000BF92CF92DF92EF92FF920F931F93CF939A
:100B7000DF936C017B018A0180916A01882309F46B
:100B80005CC08091E704882309F457C08091D904A0
:100B900080FF05C08091E00082608093E000E80162
:100BA000B12C8AEFA82E93E0892E2AE3922E20976B
:100BB00011F4BB20D9F10E94DD0281110AC0AA9470
:100BC000AA20D9F161E070E080E090E00E947B050E
:100BD000EECF8C171D0611F00CF08C2F9FB7F894F8
:100BE0008092E9002091E80025FD02C09FBFDFCF81
:100BF000282F30E0C21BD30BF701815020F0419128
:100C00004093F100FACFE20EF31EBB2021F0909248
:100C1000E800B12CEBCF8091E80085FDE7CF909202
:100C2000E800BB24B394209709F3F3CF5D9884E6E2
:100C30008093D804101611063CF081E090E0F60194
:100C40009383828310E000E0C801DF91CF911F9170
:100C50000F91FF90EF90DF90CF90BF90AF909F905B
:100C60008F9008952FB7F8946091400470914104DB
:100C700080914204909143042FBF08954F925F9258
:100C80006F927F928F929F92AF92BF92CF92DF929C
:100C9000EF92FF920F931F93CF93DF93FC01168186
:100CA000A12FB0E020E833E341EE51E00E94DD2FB8
:100CB0004B015C01C2EBD7E09D0104E610E080E946
:100CC000E82EFF24F394CE01825B974082179307AE
:100CD0009CF14580512C2E54384FC90164E670E0D8
:100CE0000E94922F7C01C90160E971E00E94922F5D
:100CF0006C010CE611E0C1E0D0E0390183E068222C
:100D00007724C415D5050CF040C0C230D10571F56B
:100D10006114710459F5E114F10419F4C114D104FA
:100D200029F5B0E88B0EBBE39B1EB6E2AB1EB11CEF
:100D300021960F5F1F4FE5CFCE0183709927892B36
:100D400099F4CE01B8010E94922F892B31F4CE0183
:100D5000B7010E94922F892B39F4A0E88A0EA1E5F1
:100D60009A1EA1E0AA1EB11C2196ADCFD8018C918C
:100D7000A82FB0E020E831E541E050E00E94DD2FEF
:100D8000860E971EA81EB91ED3CF228130E0A0E1A7
:100D9000BEE00E94CE2F6B017C01218130E0ACE3EC
:100DA000B0E00E94CE2FC60ED71EE81EF91E80812D
:100DB000C80ED11CE11CF11CA481A150BB0B20E882
:100DC00031E541E050E00E94E82F6C0D7D1D8E1D45
:100DD0009F1D680D791D8A1D9B1DDF91CF911F916D
:100DE0000F91FF90EF90DF90CF90BF90AF909F90CA
:100DF0008F907F906F905F904F9008956F927F9249
:100E00008F929F92AF92BF92CF92DF92EF92FF921A
:100E10000F931F93CF93DF936B017C01EA018CE367
:100E2000882E912CA12CB12CC701A50194010E9400
:100E3000A62F6883CA01B901A50194010E94A62FBB
:100E40006983C701B60120E13EE040E050E00E9426
:100E5000A62FCA01B90128E130E040E050E00E942D
:100E6000A62F6A83C701B60120E831E541E050E0D2
:100E70000E94A62F69017A01CA01B9016C5F7F4FF8
:100E80008F4F9F4F27E030E040E050E00E94A62FB8
:100E90006F5F6B83812C912C540140E094E6692EA6
:100EA000712C00E911E0242F30E02E54384FF90165
:100EB000E370FF273097F9F4C901B3010E94922F24
:100EC000892B31F4C901B8010E94922F892B99F422
:100ED0008EE691E0A0E0B0E0880E991EAA1EBB1E2F
:100EE000D501C401AA27BB27C816D906EA06FB0606
:100EF00038F04F5FD8CF8DE691E0A0E0B0E0ECCFC6
:100F00004E83C90164E670E00E94922F8C01C901F2
:100F100060E971E00E94922F309729F401151105C4
:100F2000E1F40097D1F04DE651E060E070E0841A02
:100F3000950AA60AB70AC818D908EA08FB08ACE659
:100F4000B1E020E0213071F4309791F501151105E1
:100F500011F4009769F54DE106C04EE651E060E0FE
:100F600070E0E5CF4C9150E070E060E031E0320F8E
:100F7000C416D506E606F70640F0C41AD50AE60AF6
:100F8000F70A1196232F3C30E9F62F5F2D83C39487
:100F9000CC82DF91CF911F910F91FF90EF90DF9066
:100FA000CF90BF90AF909F908F907F906F9008955B
:100FB0004CE1D9CFCF92DF92EF92FF92C0903B04E9
:100FC000D0903C04E0903D04F0903E04C616D70655
:100FD000E806F90671F06B017C0149E454E00E94D7
:100FE000FE06C0923B04D0923C04E0923D04F09295
:100FF0003E04FF90EF90DF90CF900895282F30E0CF
:1010000094E0359527959A95E1F7922F990F990FCE
:10101000291B220F820F0895FC01808580FD04C0EA
:1010200082FB882780F9089580E00895862F642F39
:101030000C941A05FC0181850E94C30421E0892BD0
:1010400009F420E0822F0895CF93DF93EC016987A4
:1010500018860E941A08882319F08885836088877B
:101060000E9432066A837B838C839D83DF91CF91BC
:101070000895CF92DF92EF92FF920F931F93CF9339
:10108000DF93EC0188858B7F8887CE010E941A0848
:10109000182F8885869581701817B9F00E9432063E
:1010A0006A837B838C839D83888592E089278887E8
:1010B000888582FB882780F9DF91CF911F910F915E
:1010C000FF90EF90DF90CF9008950E943206CA8083
:1010D000DB80EC80FD80AB01BC014C195D096E0921
:1010E0007F098E819F81B0E0A0E0481759076A0709
:1010F0007B07F0F2888581701817D1F20E943206C2
:101100006A837B838C839D83888591E089278460B3
:1011100088870E9432060A851B852C853D85601BC9
:10112000710B820B930B6E877F87888B998B0E9444
:1011300032066A877B878C879D87BACFCF93DF93F0
:10114000EC019C818E81981768F48F856827E8816F
:10115000F9810084F185E02D42E0CE0109958C8172
:101160008F5F8C83DF91CF91089520911804260F13
:101170003327331F21323105ECF420912E05FC0179
:1011800090E080E0243069F082E00895A091180496
:101190002191AC0148505C4FA40FB52FB11D2C9389
:1011A0000196861798F380911804680F60931804CD
:1011B00080E0089581E0089510922E0581E08093EB
:1011C0002D051092080561E082E00E94EC0461E0C8
:1011D00083E00E94EC04E9EBF0E080818E7F808365
:1011E00080818D7F808388E48093B80085E480933C
:1011F000BC000895CF93DF9391E09093F703882389
:10120000B9F0C091B800D091BA008091BC008A7B3F
:101210008093BC0060E082E00E94EC0460E083E028
:101220000E94EC040E94DC08D093BA00C093B8007E
:10123000DF91CF910895CF92DF92EF92FF920F93BB
:101240001F93CF93DF93D091AB0581E0D13208F0AB
:101250009CC0C09155050E9456056B017C01809190
:101260002E0581116CC082E080932E0581E0809371
:101270002D058FEF80932C0510922B05D0932A0516
:10128000A5E3B5E0EAE0F5E080E0D8138DC0109268
:10129000090580910905CC0FC82BC09309058091E1
:1012A0000805813009F084C0109208050E94560597
:1012B0006B017C01809109058093BB008091300512
:1012C00090913105A0913205B0913305892B8A2B7D
:1012D0008B2BA1F00E94560500913005109131052D
:1012E00020913205309133056C197D098E099F09D3
:1012F000061717072807390708F442C08091BC0079
:1013000083FDD8CF85EC8093BC000E9456056B010D
:101310007C0180912E05823009F44CC080912C050F
:101320008F3F09F469C080912C05803209F466C0B2
:1013300080912C05803309F463C084E026C080913D
:10134000300590913105A0913205B0913305892B7C
:101350008A2B8B2B09F483CF0E9456050091300510
:101360001091310520913205309133056C197D09BA
:101370008E099F09061717072807390708F06FCF4E
:1013800080912F050E94FA0885E01092AC0510921A
:10139000AB0510923405DF91CF911F910F91FF9013
:1013A000EF90DF90CF9008959D9191938F5F6DCFD7
:1013B00085EEA9CF8091300590913105A09132053D
:1013C000B0913305892B8A2B8B2B09F4A2CF0E9475
:1013D000560500913005109131052091320530916C
:1013E00033056C197D098E099F0906171707280711
:1013F000390708F08ECFC4CF80E0C7CF82E0C5CFD9
:1014000083E0C3CFCF92DF92EF92FF920F931F93AF
:10141000CF93DF93D82FC62F613208F098C00E9477
:1014200056056B017C0180912E0581116BC081E016
:1014300080932E0580932D059FEF90932C0510929D
:101440002B059C0F90932A0580930905809109052F
:10145000DD0FD82BD093090580910805813009F064
:1014600078C0109208050E9456056B017C0180919E
:1014700009058093BB008091300590913105A091C2
:101480003205B0913305892B8A2B8B2BA1F00E945A
:1014900056050091300510913105209132053091AB
:1014A00033056C197D098E099F0906171707280750
:1014B000390708F448C08091BC0083FDD8CF85EC83
:1014C0008093BC000E9456056B017C0180912E0523
:1014D000813009F440C080912B058C1710F4C09125
:1014E0002B05EAE0F5E0A8EEB4E080E08C1355C0EF
:1014F0008C2FDF91CF911F910F91FF90EF90DF9094
:10150000CF9008958091300590913105A0913205DA
:10151000B0913305892B8A2B8B2B09F484CF0E9441
:10152000560500913005109131052091320530911A
:1015300033056C197D098E099F09061717072807BF
:10154000390708F070CF80912F050E94FA08C0E09B
:10155000CFCF85EEB5CF8091300590913105A09128
:101560003205B0913305892B8A2B8B2B09F4AECF32
:101570000E945605009130051091310520913205E9
:10158000309133056C197D098E099F0906171707DD
:101590002807390708F09ACFD6CF91919D938F5F96
:1015A000A5CF0895E091AE058091AD05E81730F420
:1015B000F0E0E851FB4F808190E008958FEF9FEFBE
:1015C0000895CF92DF92EF92FF920F931F93CF93E4
:1015D000DF937C01CB018A0120913405222389F01D
:1015E000EB016B01C40ED51ECC15DD0569F06991C8
:1015F000D701ED91FC910190F081E02DC701099593
:10160000F3CF642F0E94B508C801DF91CF911F91DD
:101610000F91FF90EF90DF90CF900895CF93DF93DD
:101620001F92CDB7DEB76983209134052223F9F0EC
:101630002091AB05203258F021E030E0FC013383EB
:10164000228390E080E00F90DF91CF910895809108
:10165000AC05E82FF0E0EB5CFA4F998190838F5F47
:101660008093AC058093AB0581E090E0ECCF61E026
:10167000CE0101960E94B508F7CFCF93DF93D82F04
:10168000C62F88E60E947C026D2F8FEA95E00E94AB
:101690000E0B6C2F8FEA95E00E940E0BDF91CF911D
:1016A0000C941B090F931F93CF93DF93382FE62FD2
:1016B0005AE0862F652F0E94862F182F110F180FC2
:1016C000110F1E0F842F0E94862FD82FDD0FD80FE9
:1016D000DD0FD40F822F0E94862FC82FCC0FC80F8A
:1016E000CC0FC20F60E830FF60E031FD106832FDC2
:1016F000D06834FDC06433FDC0680BE037FD04C022
:1017000087E00E943D0B08E0612F802F0E943D0B77
:101710006D2F81E0800F0E943D0B6C2F82E0800FC7
:10172000DF91CF911F910F910C943D0B1F93CF939D
:10173000DF93162FEA010E947C02612F8FEA95E069
:101740000E940E0B68818FEA95E00E940E0B0E94AA
:101750001B0991E0811190E0892FDF91CF911F91BA
:101760000895CF93DF93D82FC62F8EE00E947C027E
:101770006D2F8FEA95E00E940E0B6C2F8FEA95E09B
:101780000E940E0BDF91CF910C941B09CF93C82FB1
:1017900060E088E08C0F0E94B10B6FE070E080E0A9
:1017A00090E00E947B0560E089E08C0FCF910C9463
:1017B000B10B1F93CF93DF93162FEA010E947C0297
:1017C000612F8FEA95E00E940E0B6D2F8FEA95E056
:1017D0000E940E0B6C2F8FEA95E00E940E0B0E9468
:1017E0001B0991E0811190E0892FDF91CF911F912A
:1017F000089581E08093F6030895CF92DF92EF92EF
:10180000FF9261E084E00E94EC0462E370E080E01B
:1018100090E00E947B05EEEFF0E0E49190917B0078
:101820008E2F880F880F80729F7D892B80937B007D
:10183000E770E064E0937C0080917A00806480939C
:101840007A0080917A0086FDFCCF809178006091CB
:101850007900762F682F072E000C880B990B0E94B9
:10186000932E20E030E040E85AE30E94552C26E613
:1018700036E646E550E40E94552C9B01AC010E94DF
:10188000502D6B017C01C0925804D0925904E09213
:101890005A04F0925B0462E370E080E090E00E9402
:1018A0007B0560E084E00E94EC042AE939E949E51F
:1018B00050E4C701B6010E944F2D2FE632E143E00C
:1018C0005CE30E94F02D0E94622E653638F460932E
:1018D0005605FF90EF90DF90CF90089584E68093B7
:1018E0005605F7CF4091CE045091CF046091D004BB
:1018F0007091D104409384045093850460938604CE
:101900007093870490938304809382040895909148
:10191000AC04909376048093AC04089581E08093A6
:10192000F5038CE30C94870C81E08093F40382E34D
:101930000C94870C1F93CF93DF93EC01162F61E07B
:10194000411101C060E08A890E94EC0480E58CBDF1
:1019500081E08DBD60E089890E94EC041EBD00001D
:101960000DB407FEFDCF8EB561E08989DF91CF917F
:101970001F910C94EC04DC01ED91FC910084F18545
:10198000E02D40E009940F931F93CF938C01FC014D
:101990006483C085C60F6C2F6F700E94BB0C6C2FC8
:1019A00062956F706061C801CF911F910F910C9487
:1019B000BB0CFC012781269526952695621738F4E5
:1019C00065832385620F6770606B0C94BB0C089570
:1019D0001F93CF93DF93EC01142F8E81681718F4B7
:1019E000CE010E94C30C612FCE01DF91CF911F91D8
:1019F0000C94D90CCF92DF92EF92FF920F931F932A
:101A0000CF93DF93EC01F62EC42ED22E8F818695D4
:101A100086958695081710F00FEF080F1D2D0117FA
:101A200080F0412F6F2DCE010E94E80CEF2CCE14D8
:101A300030F06F85CE010E949E08E394F8CF1F5FBF
:101A4000EECF4D2D6F2DCE01DF91CF911F910F91D4
:101A5000FF90EF90DF90CF900C94E80C0F93DC0197
:101A600015962C9115971D96ED91FC911E9700E00F
:101A7000309779F03396E491F0E0379683E0F5956E
:101A8000E7958A95E1F750960C9150970E9F002D9F
:101A90001124EFEFE20F0E0F16964C91169741505E
:101AA00014966C911497CD010E94FA0C0F91089531
:101AB0002F923F924F925F926F927F928F929F925E
:101AC000AF92BF92CF92DF92EF92FF920F931F934C
:101AD000CF93DF9300D000D01F92CDB7DEB7FC01CB
:101AE000258536852115310509F445C19D838C83F3
:101AF000F9013296649031964491E42EF12CF7E08E
:101B0000EF0EF11C53E0F594E7945A95E1F7E98262
:101B1000F901349654913196E491651748F08E2F6F
:101B200090E0FC01E50FF11D6E171F060CF468C074
:101B30006D3029F5EC81FD81868181111AC081E02B
:101B400090E00F900F900F900F900F90DF91CF913A
:101B50001F910F91FF90EF90DF90CF90BF90AF90CB
:101B60009F908F907F906F905F904F903F902F90BD
:101B7000089560E08C819D810E94C30CE0CF6A30A3
:101B800009F0F9C0EC81FD818681882321F060E0B5
:101B9000CF010E94C30CEC81FD8180898E9DE02CD9
:101BA000112465816E0D8485882349F0978196956F
:101BB000969596958E2D891B860F18162CF08C8184
:101BC0009D810E94D90CBBCFEC81FD812385820FC2
:101BD000877083879E199583CF010E942E0DEC811B
:101BE000FD818485813009F0AACF6385660F660F79
:101BF000660F6F7362876064CF010E94BB0C9FCF3A
:101C000089010A5F1F4F651BEC81FD817185508939
:101C1000759F502D11245B83F90154912F5F3F4F25
:101C2000F9012491352F2230310508F066C06E9CF1
:101C3000C0016F9C900D1124689FF001699FF00D09
:101C400011240E0F1F1F512CEC81FD81F481FA83AA
:101C5000EC81FD812580862C912CAA24A394B12CA3
:101C6000312CF9813F1608F084C0412CEC81FD81B4
:101C70008089481608F076C0311002C0442041F037
:101C8000EC81FD8145814F5F6A81CF010E94E80CA4
:101C9000D12CC12CC61408F058C0F801EC0DFD1D64
:101CA0007490552061F0EA14FB0449F4E72DF0E04C
:101CB000052C02C0F595E7950A94E2F77E2EEC819B
:101CC000FD818089823081F4442009F43AC0729405
:101CD0008FE07822E72DF0E0E150FF4F7490672D00
:101CE0008C819D810E949E08672D8C819D810E9420
:101CF0009E088FEFC81AD80ACDCF477028E0522E21
:101D0000541A411101C0512CF801612C30E020E03F
:101D1000661631F04491240F311D63943196F8CF4B
:101D2000600E712E711CF3016490E29EF001E39E3F
:101D3000F00DF29EF00D11248E0F9F1F080F191F3A
:101D400083CFF72DFF707F2EC5CFD12CEB81DE1610
:101D500039F060E08C819D810E949E08D394F6CF7B
:101D6000439484CF3394080D191DFFEFAF1ABF0AB7
:101D700078CF622D24CF90E080E0E3CE0F931F93C5
:101D8000CF93DF938C01D0E0C0E0F801EC0FFD1F92
:101D90006491662341F08EE196E00E94580D892BF4
:101DA00011F02196F2CFCE01DF91CF911F910F91CB
:101DB0000895FF920F931F93CF93DF93082FF62E72
:101DC000142FC0912B06D0912C068CE094E00E9439
:101DD00068024F2D602F8EE196E00E94E80C612F83
:101DE0008EE196E00E94580DCE01DF91CF911F91B8
:101DF0000F91FF900C94680280915605893128F468
:101E000043E260E080E00E94D90E8091560589513E
:101E1000893128F444E260E080E00E94D90E80918C
:101E200056058253893128F445E260E080E00E9443
:101E3000D90E809156058B54893128F446E260E032
:101E400080E00E94D90E80915605843629F447E23D
:101E500060E080E00C94D90E08950F93CF93DF9348
:101E6000EC011B861A8660E40E94BB0C0F8106956C
:101E70000695069501504E81415020E060E0CE016C
:101E80000E94FA0CDF91CF910F910895089590E090
:101E900080E00895FC0101900020E9F73197AF013F
:101EA000481B590BBC018EE196E00C944A048F92BA
:101EB0009F92AF92BF920F931F93CF93DF93CDB7B3
:101EC000DEB7A1970FB6F894DEBF0FBECDBF19A243
:101ED000423008F44AE08E010F5D1F4F842E912C92
:101EE000B12CA12CA50194010E94A62FE62FB901C7
:101EF000CA01EA30F4F4E05DD801EE938D01232BA2
:101F0000242B252B79F790E080E0109719F0CD0174
:101F10000E944A0FA1960FB6F894DEBF0FBECDBF48
:101F2000DF91CF911F910F91BF90AF909F908F90B5
:101F30000895E95CE1CFCF92DF92EF92FF92CF93C9
:101F4000DF936B017C016DE28EE196E00E94580DFB
:101F5000EC0166277727CB016C197D098E099F0953
:101F60004AE00E94570F8C0F9D1FDF91CF91FF9089
:101F7000EF90DF90CF900895009711F00C944A0FE6
:101F800090E080E008950F931F93CF93DF93C82FC5
:101F9000D62F00912B0610912C068CE094E00E9425
:101FA0006802DA3008F09CC0ED2FF0E0E252F04F0A
:101FB00042E06C2F8EE196E00C94C82FE80F1510CC
:101FC000421077109A10C710E01003110811211168
:101FD0000E94E80C89EE91E00E94BC0F43E06C2F58
:101FE0008EE196E00E94E80C8EEE91E00E94BC0F1C
:101FF00044E06C2F8EE196E00E94E80C83EF91E0C4
:102000000E94BC0F45E06C2F8EE196E00E94E80C28
:1020100088EF91E00E94BC0F46E06C2F8EE196E0C5
:102020000E94E80C8DEF91E059C00E94E80C82E01C
:1020300092E00E94BC0F43E06C2F8EE196E00E947C
:10204000E80C87E092E00E94BC0F44E06C2F8EE128
:1020500096E00E94E80C87E092E00E94BC0F45E009
:102060006C2F8EE196E00E94E80C87E092E00E94DF
:10207000BC0F46E06C2F8EE196E00E94E80C87E0F2
:1020800092E02CC00E94E80C89EE91E00E94BC0F07
:1020900043E06C2F8EE196E00E94E80C87E092E02E
:1020A0000E94BC0F44E06C2F8EE196E00E94E80C89
:1020B0008CE092E00E94BC0F45E06C2F8EE196E030
:1020C0000E94E80C81E192E00E94BC0F46E06C2F78
:1020D0008EE196E00E94E80C86E192E00E94BC0F3F
:1020E000C801DF91CF911F910F910C9468020E945B
:1020F000E80C89EE91E00E94BC0F43E06C2F8EE16A
:1021000096E00E94E80C87E092E00E94BC0F44E059
:102110006C2F8EE196E00E94E80C8BE192E00E9429
:10212000BC0F45E06C2F8EE196E00E94E80C87E042
:1021300092E070CF0E94E80C81E192E00E94BC0F17
:1021400043E06C2F8EE196E00E94E80C80E292E082
:102150000E94BC0F44E06C2F8EE196E00E94E80CD8
:1021600085E292E00E94BC0F45E06C2F8EE196E084
:102170000E94E80C8AE292E00E94BC0F46E06C2FBD
:102180008EE196E00E94E80C8AE292E0A7CF0E94DE
:10219000E80C86E192E00E94BC0F43E06C2F8EE1D8
:1021A00096E00E94E80C81E192E00E94BC0F44E0BE
:1021B0006C2F8EE196E00E94E80C8FE292E0AFCFA8
:1021C0000E94E80C89EE91E00E94BC0F43E06C2F66
:1021D0008EE196E00E94E80C81E192E00E94BC0F43
:1021E00044E06C2F8EE196E00E94E80C8FE292E0D2
:1021F0000E94BC0F45E06C2F8EE196E00E94E80C37
:1022000084E392E007CF0E94E80C89EE91E011CFC1
:102210000E94E80C89EE91E00E94BC0F43E06C2F15
:102220008EE196E00E94E80C84E392E00E94BC0FED
:1022300044E06C2F8EE196E00E94E80C86E192E08B
:10224000D7CF0E94E80C89EE91E00E94BC0F43E0DA
:102250006C2F8EE196E00E94E80C84E392E00E94ED
:10226000BC0F44E06C2F8EE196E00E94E80C85E202
:1022700092E055CFCF93DF930E944A0FEC0189E3A0
:1022800092E00E944A0F8C0F9D1FDF91CF9108951D
:10229000CF93DF9300D000D000D01F92CDB7DEB730
:1022A00088E60E947C0260E08FEA95E00E940E0BB7
:1022B0000E941B0981113AC067E088E60E94020A69
:1022C0001092AE058093AD050E9499028F770E940F
:1022D000FE0789830E9499020E94FE078A830E945A
:1022E00099028F7B0E94FE078B830E9499028C8348
:1022F0000E9499020E94FE078D830E9499028F77A7
:102300000E94FE078E830E9499020E94FE07825E51
:102310008F83CE0101960E943E0627960FB6F89451
:10232000DEBF0FBECDBFDF91CF91089560E070E0BA
:10233000CB01F3CF0F931F93CF93C82F8B0188E668
:102340000E947C026C2F8FEA95E00E940E0B0E9487
:102350001B09C82F81110CC061E088E60E94020AA7
:102360001092AE058093AD050E949902F80180831A
:102370008C2FCF911F910F910895FF920F931F9370
:10238000CF93DF931F92CDB7DEB78C0188E60E9412
:102390007C0260E08FEA95E00E940E0BF80120813C
:1023A0008AE0F82E822F6F2D0E94862F682F660FED
:1023B000680F660F620F8FEA95E00E940E0BF8011E
:1023C0002181822F6F2D0E94862F682F660F680F44
:1023D000660F620F8FEA95E00E940E0BF8012281D2
:1023E000822F6F2D0E94862F682F660F680F660F51
:1023F000620F8FEA95E00E940E0BF80163818FEA6D
:1024000095E00E940E0BF8012481822F6F2D0E940F
:10241000862F682F660F680F660F620F8FEA95E0B0
:102420000E940E0BF8012581822F6F2D0E94862FAE
:10243000682F660F680F660F620F8FEA95E00E94A3
:102440000E0BF80126812E51822F6F2D0E94862FB0
:10245000682F660F680F660F620F8FEA95E00E9483
:102460000E0B0E941B09182FBE016F5F7F4F8FE07C
:102470000E949A1169816F778FE00E943D0B812F36
:102480000F90DF91CF911F910F91FF9008950F93BF
:102490001F93CF93DF931F92CDB7DEB7182F062F70
:1024A000BE016F5F7F4F8EE00E949A119981412F8C
:1024B0004150550B61E070E001C0660F4A95EAF7A4
:1024C000002351F0692B8EE00E943D0B0F90DF91AD
:1024D000CF911F910F91089560956923F4CFEB98E8
:1024E00089E494E0909313018093120160E081E00D
:1024F0000C94471289EF9BE0909313018093120193
:10250000E9E6F0E080818F7380688083EB9A61E078
:1025100081E00C9447121F93CF93DF931F92CDB7A6
:10252000DEB7182FBE016F5F7F4F8FE00E949A11B8
:102530006981812F8150990B9C0181E090E001C05D
:10254000880F2A95EAF7262F282359F080956823CB
:102550008FE00E943D0B81E00F90DF91CF911F91A2
:10256000089580E0F9CFCF93C82F8EE00E947C02BF
:102570006C2F8FEA95E00E940E0B0E941B0983E0EE
:1025800090E00197F1F761E08EE00E94020AC82F07
:102590001092AE058093AD0580E09091AE05C9170D
:1025A00019F00E949902F9CFCF91089510920D066B
:1025B00080E10E94B312682F6C7F80E10C94B10B14
:1025C0004F925F926F927F928F929F92AF92BF9243
:1025D000CF92DF92EF92FF926B017C01AC019B01E5
:1025E0000E946C2F882381F08CE392E0FF90EF90A3
:1025F000DF90CF90BF90AF909F908F907F906F9023
:102600005F904F900C944A0F46015701E894B7F839
:102610002FEF3FEF4FE75FE7C501B4010E946C2F3A
:1026200081110DC02FEF3FEF4FE75FE7C501B40108
:102630000E94EB2D18161CF480E492E0D7CF2FEF08
:102640003FEF4FE75FE4C701B6010E94192F18164C
:102650001CF484E492E0CACF2FEF3FEF4FE75FEC2A
:10266000C701B6010E94EB2D87FDF3CF20E030E0DB
:10267000A901C701B6010E94EB2DB12CA12C87FF47
:102680000AC06DE28EE196E00E94580D5C01F7FAF7
:10269000F094F7F8F0942AE037ED43EA5BE3C701E2
:1026A000B6010E94502D2B013C010E94622E6B014D
:1026B0007C010E94912E9B01AC01C301B2010E94DA
:1026C0004F2D2B013C014AE0C701B6010E94570F74
:1026D0007C01EA0CFB1C6EE28EE196E00E94580D34
:1026E000E80EF91E20E030E040E251E4C301B201FF
:1026F0000E94552C2B013C010E94622E4B01B12CF3
:10270000A12C4AE0C501B4010E94570FE80EF91E42
:10271000C501B4010E94912E9B01AC01C301B2011D
:102720000E944F2D20E030E040E251E40E94552C01
:102730000E94622E90E080E04AE00E94570F8E0DCA
:102740009F1DFF90EF90DF90CF90BF90AF909F9034
:102750008F907F906F905F904F9008952F923F924F
:102760004F925F926F927F928F929F92AF92BF92A1
:10277000CF92DF92EF92FF920F931F93CF93DF934D
:1027800000D000D01F92CDB7DEB7E82E6B834D830B
:1027900019010E9432064B015C01FD80D12C1C8284
:1027A0002F2D30E03A8329832801712C612C8E2D46
:1027B0000E947C026B818FEA95E00E940E0B0E94C2
:1027C0001B098E2D0E947C026F2D80E28F1508F46C
:1027D00060E28E2D0E94020AC82E1092AE058093F0
:1027E000AD058091AE05C816D1F00115110561F453
:1027F0000E949902F1019C81E90FF11D97FDFA9564
:1028000080839F5F9C83EDCF0E943206681979090F
:102810008A099B09641575058605970548F32D817E
:10282000D20EF21AD21618F201151105C1F00E944B
:102830003206681979098A099B0930E020E060179F
:1028400071078207930758F03C81832F330F990B50
:1028500029813A818217930714F43FEF3C838C81DE
:102860000F900F900F900F900F90DF91CF911F91CD
:102870000F91FF90EF90DF90CF90BF90AF909F901F
:102880008F907F906F905F904F903F902F90089522
:10289000CF92DF92EF92FF920F931F93CF93DF932C
:1028A00000D0CDB7DEB7F82EE62EC42ED22E08EE1D
:1028B00013E09E012E5F3F4F41E00E94AE1321E0E6
:1028C00030E001C0220FCA94EAF78A81DD20A9F026
:1028D000822B8A838983AE014F5F5F4F6E2D8F2DD0
:1028E0000E94960B0F900F90DF91CF911F910F9147
:1028F000FF90EF90DF90CF90089520958223E9CF4D
:10290000282F46E06BE680910F060C9448140F9335
:102910001F93CF93DF931F92CDB7DEB708EE13E07E
:102920009E012F5F3F4F41E06BE680910F060E94B2
:10293000AE13998190749093100681E0911101C0BB
:1029400080E00F90DF91CF911F910F910895BF927A
:10295000CF92DF92EF92FF920F931F93CF93DF936B
:1029600000D0CDB7DEB7F82EE62EC42EB22ED02E74
:1029700008EE13E09E012E5F3F4F41E00E94AE1330
:10298000882399F18C2D8B19990BAC014F5F5F4F08
:1029900081E090E002C0880F991FBA94E2F7019796
:1029A000042E01C0880F0A94EAF70D2D01C0000F14
:1029B0004A95EAF7982F90952A8192238023892BB4
:1029C0008A838983AE014F5F5F4F6E2D8F2D0E94EA
:1029D000960B0F900F90DF91CF911F910F91FF9069
:1029E000EF90DF90CF90BF90089580E0F2CF0E94EB
:1029F000043085ED8093BC008091300590913105C5
:102A0000A0913205B09133050796A11DB11D23E0B9
:102A1000B695A795979587952A95D1F72091BC00F3
:102A200024FD03C010922E05089540913005509169
:102A300031056091320570913305452B462B472BAC
:102A400069F30097A105B10541F025E32A95F1F757
:102A500000000197A109B109E1CF80912F050C94E5
:102A6000FA080C94412D0C94392D1F920F920FB639
:102A70000F9211248F939F938091E1009091E10038
:102A8000937F9093E10083FF0FC01092E90091E0E3
:102A90009093EB001092EC0092E39093ED00109273
:102AA000E70498E09093F00082FF22C093E09093B7
:102AB000E9009091F200992319F09AE39093E800CD
:102AC0009091D804992341F09091D804915090931B
:102AD000D804911101C05D9A9091E604992341F0C8
:102AE0009091E60491509093E604911101C0289AC8
:102AF00084FF18C08091E2008E7E81608093E200A6
:102B00008091E1008F7E8093E1008091D9048E7ED8
:102B100080618093D9049F918F910F900FBE0F9089
:102B20001F90189580FFF7CF8091E2008E7E806124
:102B30008093E2008091E1008E7E8093E10080919D
:102B4000D9048E7E8160E5CF1F920F920FB60F924F
:102B50001124CF92DF92EF92FF920F931F932F9346
:102B60003F934F935F936F937F938F939F93AF9315
:102B7000BF93EF93FF93CF93DF93CDB7DEB76C97FF
:102B8000DEBFCDBF1092E9008091E80083FF25C031
:102B900068E0CE0145960E943B0482EF8093E800F6
:102BA0008D8987FF39C09091E80090FFFCCF982F66
:102BB000907609F034C19E894F89588D2F89F88C01
:102BC000911131C0803861F58091D7048093F10074
:102BD0001092F1008EEF8093E8006C960FB6F89497
:102BE000DEBF0FBECDBFDF91CF91FF91EF91BF91BF
:102BF000AF919F918F917F916F915F914F913F9195
:102C00002F911F910F91FF90EF90DF90CF900F9039
:102C10000FBE0F901F9018959EEF9093E800C7CFBE
:102C20001092F100D5CF913059F48111D3CF4130BA
:102C3000510581F68091D7048D7F8093D704CACF48
:102C4000933049F48111C6CF4130510519F6809176
:102C5000D7048260F2CF953041F48091E80080FF84
:102C6000FCCF20682093E300B5CF963009F0A9C0CF
:102C70000B8D1C8D22E01092E9001092D504109269
:102C8000D404F2122EC01092D3041092D2040E94E7
:102C90000A041F8299E09983FA8291E09E8390EA68
:102CA00098879AEF99872091D4043091D504275FB3
:102CB0003F4F3C832B838D831092E9001092D50403
:102CC0001092D4041093D3040093D20449E050E04E
:102CD000BE016F5F7F4F80E00E94E4030E940A0400
:102CE00079CF1093D3040093D2040E94EE02DC014A
:102CF00012960D911C910115110509F451C1D801CD
:102D0000ED91FC910480F581E02DBE016B5E7F4F5B
:102D1000C8010995009709F03EC1F80100851185A9
:102D2000EACFF3E0FF120EC08F89882309F440C078
:102D3000823061F440E860E18BEF93E00E94B103E0
:102D4000811148CF81E28093EB0047CF813029F495
:102D500040E86BE08FEE93E0F1CF833099F70E946B
:102D6000EE02DC011296ED90FC908E010F5F1F4F7A
:102D70006801E114F10479F0D701ED91FC9106802E
:102D8000F781E02DB801C7010995080F111DF70162
:102D9000E084F184EECFD8011C92F601019000206E
:102DA000E9F73197BF016C197D0940E0C601C6CF34
:102DB00069ED73E0FB01449150E080E80E94E40378
:102DC00009CF973009F4BECF983021F481E0809389
:102DD000F10000CF993009F0FDCE837009F0B2CF39
:102DE000E9EAF1E081E031E096E32191222371F0FC
:102DF0008093E9003093EB00DF0111972C91209331
:102E0000EC009093ED008F5F873079F78EE7809329
:102E1000EA001092EA008F898093E704DBCE8B8D65
:102E20009C8D1092E9001092D5041092D4049093D6
:102E3000D3048093D204898D811192C08E899D899B
:102E4000913A49F4813209F07DCF47E050E063E6E2
:102E500071E080E0B3CF913209F074CF833269F42E
:102E60008F89988DB0E0A0E080935F01909360011E
:102E7000A0936101B0936201ADCE803269F480917C
:102E8000E80082FFFCCF67E083E691E00E943B040C
:102E90008BEF8093E8009ECE823209F09BCE8F8923
:102EA00080936A01EEEFFFE7859194918B3F9C4DF3
:102EB00051F1E0E0F8E08091630190916401A0910C
:102EC0006501B0916601803B9440A105B105F1F424
:102ED00080916A0180FD1AC0EE3F8AE0F80789F50B
:102EE00087E797E791838083809160008093D60481
:102EF00088E19BE00FB6F894A895809360000FBE20
:102F00009093600067CEEEEFFAE0D5CF808191819B
:102F10008737974709F05ECEA89580916000886159
:102F2000809360008091D60480936000EE3F2AE099
:102F3000F20789F08091FE0A9091FF0A91838083C5
:102F400049CE808191818737980751F29093FF0A8B
:102F50008093FE0AC5CF1092FF0A1092FE0A3ACE65
:102F60000E94EE02DC0112960D911C9101151105D3
:102F700009F4E8CED801ED91FC910190F081E02DAB
:102F8000BE016B5E7F4FC8010995811123CEF80108
:102F900000851185EBCF181619060CF41BCED2CE86
:102FA000F1E0FF12BECE6DED73E004CF1F920F92E1
:102FB0000FB60F9211242F933F938F939F93AF934C
:102FC000BF938091400490914104A0914204B0913C
:102FD000430430913F0423E0230F2D3758F5019629
:102FE000A11DB11D20933F048093400490934104A0
:102FF000A0934204B093430480914404909145040B
:10300000A0914604B09147040196A11DB11D809383
:10301000440490934504A0934604B0934704BF91A1
:10302000AF919F918F913F912F910F900FBE0F9075
:103030001F90189526E8230F0296A11DB11DD2CF2F
:103040001F920F920FB60F9211242F933F934F931D
:103050005F936F937F938F939F93AF93BF93EF9300
:10306000FF93E0911401F09115010995FF91EF9103
:10307000BF91AF919F918F917F916F915F914F9190
:103080003F912F910F900FBE0F901F9018951F9298
:103090000F920FB60F9211242F933F934F935F938C
:1030A0006F937F938F939F93AF93BF93EF93FF9310
:1030B000E0911201F09113010995FF91EF91BF91F9
:1030C000AF919F918F917F916F915F914F913F91C0
:1030D0002F910F900FBE0F901F9018951F920F9277
:1030E0000FB60F9211242F933F934F935F936F93DB
:1030F0007F938F939F93AF93BF93EF93FF93E09151
:103100001001F09111010995FF91EF91BF91AF91DD
:103110009F918F917F916F915F914F913F912F91EF
:103120000F900FBE0F901F9018951F920F920FB621
:103130000F9211242F933F934F935F936F937F933D
:103140008F939F93AF93BF93EF93FF93E0910E0103
:10315000F0910F010995FF91EF91BF91AF919F9170
:103160008F917F916F915F914F913F912F910F9030
:103170000FBE0F901F9018951F920F920FB60F92CF
:1031800011242F933F934F935F936F937F938F936C
:103190009F93AF93BF93EF93FF93E0910C01F09156
:1031A0000D010995FF91EF91BF91AF919F918F9183
:1031B0007F916F915F914F913F912F910F900FBE33
:1031C0000F901F9018951F920F920FB60F92112417
:1031D0000F931F932F933F934F935F936F937F931F
:1031E0008F939F93AF93BF93EF93FF930E94320609
:1031F00000915304109154042091550430915604C9
:103200006017710782079307B8F080916F008D7F78
:1032100080936F0082E08093810081E08093800042
:10322000E0915004F0915104908180915204809576
:103230008923808310925204E0915004F09151044C
:1032400080819091520489278083FF91EF91BF91F3
:10325000AF919F918F917F916F915F914F913F912E
:103260002F911F910F910F900FBE0F901F901895E7
:103270001F920F920FB60F9211242F933F934F93EB
:103280005F936F937F938F939F93AF93BF93CF93EE
:10329000EF93FF9393B180915704C0917204C923B7
:1032A000282F2095C223209173048223292F209553
:1032B0008223C82B90935704C4FF05C0E0910001FE
:1032C000F09101010995C5FF05C0E0910201F0915F
:1032D00003010995C6FF05C0E0911601F0911701A1
:1032E0000995C7FF05C0E0910401F091050109951A
:1032F000C1FF05C0E0910601F09107010995C2FFE9
:1033000005C0E0910801F09109010995C3FF05C0CE
:10331000E0910A01F0910B010995FF91EF91CF9196
:10332000BF91AF919F918F917F916F915F914F91DD
:103330003F912F910F900FBE0F901F9018951F92E5
:103340000F920FB60F9211242F933F934F935F93D9
:103350006F937F938F939F93AF93BF93EF93FF935D
:103360008091B900887F803609F44AC0F0F5883230
:1033700009F4A7C018F5803109F49BC0B8F488237C
:1033800009F4F9C0883009F494C0FF91EF91BF911E
:10339000AF919F918F917F916F915F914F913F91ED
:1033A0002F910F900FBE0F901F901895883109F440
:1033B00088C0803251F780932C0514C0803409F402
:1033C0009DC040F48033B9F38833F9F680932C051F
:1033D00085ECB0C0803509F485C0883509F496C005
:1033E000883499F60E94F914D0CF883909F48CC03A
:1033F00038F5883729F050F4883611F0803729F6EF
:1034000083E080932E0510923A0457C0883809F45F
:103410007BC0803919F0803809F0B7CF80913A0429
:10342000803208F071C0E0913A0481E08E0F809301
:103430003A048091BB00F0E0E65EFB4F80833DC024
:10344000803B39F0E0F4803A09F479C0883A09F019
:103450009CCF84E080932E051092190410921804DA
:10346000E091A705F091A8050995809118048111B4
:103470000FC081E0809318041092F80309C0803CCB
:1034800009F4A6CF883C09F4A3CF883B09F07DCF8F
:10349000E091190481E08E0F80931904F0E0E85068
:1034A000FC4F80818093BB00909119048091180497
:1034B00029C0809109058093BB0085EC8093BC00F6
:1034C00064CF90912B0580912A05981758F5E091CB
:1034D0002B0581E08E0F80932B05F0E0E65FFA4F1D
:1034E0008081E9CFE0912B0581E08E0F80932B0541
:1034F0008091BB00F0E0E65FFA4F808390912B054E
:1035000080912A059817C8F285E8D8CFE0912B055D
:1035100081E08E0F80932B058091BB00F0E0E65F89
:10352000FA4F808380912D0581115CCF81E08093DB
:10353000080584EA8093BC0010922E0526CF85EC06
:103540008093BC0010922E0580913A04803230F4B2
:10355000E0913A04F0E0E65EFB4F108260913A049D
:1035600070E0E091A905F091AA058AE194E009953F
:1035700010923A040ACF10922C0534CFCF92DF92EA
:10358000EF92FF92E7E5F5E01382128288EEC82EF3
:1035900083E0D82EE12CF12CC482D582E682F7821A
:1035A00083EB91E0918380838FEF9FEF95878487F2
:1035B0001092AE051092AD051092AC051092AB05BD
:1035C0000E94DC0886E692E09093A8058093A70508
:1035D00087E692E09093AA058093A905EFEAF5E0CB
:1035E00013821282C482D582E682F78285EC91E052
:1035F00091838083EEE1F6E01382128214861686B0
:103600001586178681E0808B8FED91E09183808312
:1036100089E680930F06E4EFF5E01386128615869F
:1036200014861182128213821482158216821782E6
:103630001086E2EEF5E027ED31E03183208312823F
:103640001382148215828AE090E097838683108625
:103650001186E0EDF5E0318320831282138214821B
:1036600015829783868310861186EEEBF5E0318311
:103670002083128213821482158297838683108698
:1036800011868091BD058093BC0580916B0180936C
:10369000BB05FF90EF90DF90CF900895CF93DF931D
:1036A000CDB7DEB767970FB6F894DEBF0FBECDBFBC
:1036B000789484B5826084BD84B5816084BD85B50D
:1036C000826085BD85B5816085BD80916E00816019
:1036D00080936E00109281008091810082608093BF
:1036E00081008091810081608093810080918000C1
:1036F000816080938000809191008260809391002E
:103700008091910081608093910080919000816010
:10371000809390008091C10084608093C10080916B
:10372000C10082608093C1008091C100816080935C
:10373000C1008091C30081608093C3008091C0006C
:1037400082608093C0008091C20081608093C2003B
:1037500080917A00846080937A0080917A00826000
:1037600080937A0080917A00816080937A008091C2
:103770007A00806880937A001092E7041092D70450
:103780001092D9048091D70081608093D70080EA9D
:103790008093D80089B5806189BD89B5826089BD73
:1037A00009B400FEFDCF61E070E080E090E00E948F
:1037B0007B058091D8008F7C80618093D8008091B8
:1037C000E000807F8093E0008091E1008E7E809316
:1037D000E1008DE08093E200559A209A61E086E155
:1037E0000E941A0560E086E10E94EC046AE070E045
:1037F00080E090E00E947B0561E086E10E94EC049D
:103800006AE070E080E090E00E947B0587E18093B1
:103810002F0685E18093300661E087E10E941A055A
:1038200061E0809130060E941A051FB7F8948091DC
:103830004804811127C0EBE3F3E08491EAE5F3E06B
:103840009491E82FF0E0EE0FFF1FE25FFC4FA5918F
:10385000B491EC91E92321F461E081E10E94EC0450
:1038600061E081E10E941A058CB580618CBD8CB548
:1038700080648CBD61E08FE00E941A0561E080E108
:103880000E941A05809148048F5F809348041FBFEF
:103890001092220610922306E8E0F3E0C590D4903F
:1038A000EAE0F3E0F490EBE0F3E0E491E093240647
:1038B000ECE0F3E0E491E0932506EDE0F3E0E49141
:1038C000E093260610E000E00F1558F4F601E00F33
:1038D000F11F64918EE196E00E94BB0C0F5F1F4FB9
:1038E000F3CF8EE196E00E942D0F8DE191E00E94D2
:1038F00068028EE196E00E942D0F88E492E00E941B
:10390000BC0F21E040E060E090E080E00E94520BBC
:103910008EEC92E00E94BC0F21E040E060E080E885
:1039200090E00E94520B8EEC92E00E94BC0F81E06E
:103930000E948B128EEC92E00E94BC0F82E00E94EB
:103940008B128EEC92E00E94BC0F60E081E00E943E
:1039500047128EEC92E00E94BC0F60E082E00E9471
:1039600047128EEC92E00E94BC0FBE016F5F7F4F4A
:103970008EE00E949A11698164608EE00E943D0B86
:103980008EEC92E00E94BC0F0E9448116093B60436
:103990007093B7048093B8049093B9048EEC92E0CE
:1039A0000E94BC0F80914C0290914D02A0914E025A
:1039B00088879987AA871B86BE01685F7F4F88E545
:1039C00092E00E9409308855924063E070E00E94C6
:1039D000922F6F5F6E8380E592E00E94132D8D839E
:1039E00083E592E00E94132D825B8F838DE792E046
:1039F0000E94132D8B8380E892E00E94132D8A830E
:103A000083E892E00E94132D8983CE0101960E94E3
:103A10003E06685F7F4F8F4F9F4F0091B604109115
:103A2000B7042091B8043091B90406171707280786
:103A30003907D8F4AE014F5F5F4F0E94FE06CE01FA
:103A400001960E94BD118EEC92E00E94BC0F0E9474
:103A500048116093B6047093B7048093B8049093B0
:103A6000B9048EEC92E00E94BC0F86E892E00E94BE
:103A70003A1101E023E042E06BE680910F060E94DC
:103A8000A71400E022E044E06BE180910F060E9461
:103A9000A71422E044E06CE180910F060E94A71475
:103AA00080E00E94801403E022E045E069E6809116
:103AB0000F060E94A71401E023E042E06CE1809130
:103AC0000F060E94A71420E047E068E380910F06EC
:103AD0000E94481420E045E068E380910F060E94B0
:103AE000481421E046E068E380910F060E944814E4
:103AF00021E047E067E380910F060E94481421E02F
:103B000045E067E380910F060E9448144AE650E0C2
:103B100066E080910F060E94D90B43E75EEF68E0F4
:103B200080910F060E94D90B47EE54E06AE0809125
:103B30000F060E94D90B44E450E063E180910F0628
:103B40000E94D90B47EF5FEF65E180910F060E945D
:103B5000D90B4DE150E067E180910F060E94D90B2F
:103B600080910F0690E59B87AE01455F5F4F6FE147
:103B70000E94960B80910F0694E09887AE01485FF3
:103B80005F4F60E20E94960B1092AE051092AD0559
:103B90001092AC051092AB050E94DC0886E692E01C
:103BA0009093A8058093A70587E692E09093AA05D5
:103BB0008093A9058CE08093B80087E00E94B3123F
:103BC000843CD9F40E94D61260E080E10E94B10BDF
:103BD00060E881E10E94B10B10920C0610920D0674
:103BE00010920E061092FD0581E00E94C60B83E044
:103BF0000E94C60B85E00E94C60B81E080930D06F3
:103C000080E10E94B312682F616080E10E94B10BD5
:103C10000E94D61261E08DE00E941A0561E086E004
:103C20000E941A0561E089E00E941A0560E08DE0BB
:103C30000E94EC0460E086E00E94EC0460E089E011
:103C40000E94EC0462E088E00E941A0568E070E0DF
:103C500082EE95E00E94240809E110E01093E90546
:103C60000093E80562E08BE00E941A056BE070E0CB
:103C700080ED95E00E9424081093D7050093D605A7
:103C800062E08AE00E941A056AE070E08EEB95E03F
:103C90000E9424081093C5050093C40562E085E0E6
:103CA0000E941A0562E087E00E941A0562E081E046
:103CB0000E941A058091D80080618093D80090E01E
:103CC00080E00E9433158F3591F16FE590E080E040
:103CD0000E94311560E081E090E00E94311568E2B9
:103CE00082E090E00E94311560E084E090E00E9464
:103CF00031156AE085E090E00E94311560E086E0D1
:103D000090E00E9431156AE087E090E00E94311552
:103D100060E088E090E00E94311561E089E090E089
:103D20000E94311563E08AE090E00E94311582E044
:103D300090E00E943315809353018093180184E032
:103D400090E00E943315082F80935B0181E0011100
:103D500001C080E080937D0480937C0485E090E046
:103D60000E943315809357018093C10486E090E050
:103D70000E943315F82E80933F0187E090E00E9467
:103D80003315D82E8093430188E090E00E943315CC
:103D9000E82E8093470189E090E00E943315C82EF9
:103DA00080934B018AE090E00E943315182F809396
:103DB0004F01011103C081E00E948014115088E07E
:103DC00090E0163030F4E12FF0E0EE55FE4F8081A8
:103DD00090E02C2D4D2D6E2D0E94520BFF2029F0CE
:103DE0000E947A1281E00E948B120E94FD0B60ED0E
:103DF00077E080E090E00E947B0522242394332426
:103E000033940E9432066B017C01C092CE04D092A2
:103E1000CF04E092D004F092D10482EE95E00E94AB
:103E2000390880ED95E00E9439088EEB95E00E94FC
:103E300039080091D8051091C60580ED95E00E94E3
:103E40000C08882341F0C092CA04D092CB04E092BF
:103E5000CC04F092CD048091CA049091CB04A0913F
:103E6000CC04B091CD04B701A601481B590B6A0BD5
:103E70007B0B81E0433E54406105710508F480E00E
:103E8000009508230093C9048EEB95E00E940C086E
:103E9000882341F0C092C504D092C604E092C704C2
:103EA000F092C8048091C5049091C604A091C70403
:103EB000B091C804C81AD90AEA0AFB0A81E033EEB5
:103EC000C31634E0D306E104F10408F480E0109551
:103ED00018231093C4048091C3048225111101C0DA
:103EE00080E08093C2041093C3041091C1048AE05F
:103EF000189F102D112461E88EE196E00E94BB0C02
:103F0000612F8EE196E00E94BB0C0E9448116B016C
:103F10007C010E94DA0780914B048093C004C701A2
:103F2000B6010E94DA0710914A041093BF04C7013A
:103F3000B6010E94DA07009149040093BE04C7014C
:103F4000B6010E94DA0780914F048E518093BD0420
:103F5000C701B6010E94DA0780914E048093BC0429
:103F6000C701B6010E94DA0780914D048093BB041B
:103F7000C701B6010E94DA0780914C048093BA040D
:103F80004091B6045091B7046091B8047091B9049F
:103F9000C41AD50AE60AF70AC092B204D092B30452
:103FA000E092B404F092B50491E020915E012013F8
:103FB00001C090E09093B10491E020915D01211344
:103FC00001C090E09093B00400935E0110935D01F6
:103FD0008150990BEE24E394F12C02C0EE0CFF1CEF
:103FE0008A95E2F700914B0110E00E211F2181E03C
:103FF000E016F10609F080E08093AF0481E00E94B2
:104000008B12882369F08091AE04882349F0E01672
:10401000F10621F080914F01863011F03092AD040D
:104020008091AD04882359F08EEB95E00E940C0836
:10403000882329F01092AD048CE30E94870C8091B4
:10404000AC048D3379F48091C204882359F08091B7
:104050003F01882309F478C110923F010E946F123A
:104060003092AB0481E090913F01911101C080E05A
:104070008093AE048091CE049091CF04A091D0049F
:10408000B091D1044091A7045091A8046091A90473
:104090007091AA048C019D01041B150B260B370B94
:1040A000B901A8014333510561057105A8F080935A
:1040B000A7049093A804A093A904B093AA043091F4
:1040C0001B0120911C01230F20931C012B50243F26
:1040D00018F0319530931B014091A3045091A40432
:1040E0006091A5047091A6048C019D01041B150B21
:1040F000260B370BB901A80145365105610571053D
:1041000068F02091A2048093A3049093A404A09348
:10411000A504B093A60422252093A2043091A20402
:104120002091A10423272093A0043093A10440915F
:104130009C0450919D0460919E0470919F048C0199
:104140009D01041B150B260B370BB901A8014B3F32
:1041500051056105710568F020919B0480939C04D2
:1041600090939D04A0939E04B0939F0422252093D6
:104170009B0430919B0420919A0423272093990457
:1041800030939A044091950450919604609197045D
:10419000709198048C019D01041B150B260B370BA5
:1041A000B901A801453F51406105710568F02091B2
:1041B00094048093950490939604A0939704B093ED
:1041C000980422252093940420919404209393042E
:1041D00040918F04509190046091910470919204E9
:1041E0008C019D01041B150B260B370B4091190107
:1041F00050911A0170E060E0041715072607370791
:1042000000F120918E04222309F4ACC030918D047A
:10421000383008F09EC042E350E050931A014093BA
:104220001901222520938E0420918D042F5F209365
:104230008D0480938F0490939004A0939104B09385
:1042400092048091AD04811105C080918C04882373
:1042500009F45BC080918E04882309F456C08091D4
:104260008B04811152C00E9432066C597F4F8F4FD0
:104270009F4F60935304709354048093550490931C
:10428000560480915204811122C0E2E5F3E02491AA
:104290002093520483E393E0FC013491E32FF0E098
:1042A000EE0FFF1FE45EFC4F459154915093510473
:1042B00040935004FC018491E82FF0E0EE0FFF1FC3
:1042C000E25FFC4FA591B491EC912E2B2C930FE95A
:1042D0001FE01093870000938600809184009091E6
:1042E0008500803A9F4030F02FE93FE03093850011
:1042F0002093840081E18093810080E1809380009D
:1043000080916F00826080936F0080918E04809313
:104310008B048091D900817080938A04882309F4EA
:10432000F9C285E00E94C304892B09F0F3C2F09022
:104330001C010F2D10E061E086E00E941A050115B6
:104340001105B9F460E019C030923F010E947A1261
:1043500087CEE0E9F1E0F0931A01E09319011092A1
:104360008D045FCF04E610E010931A010093190149
:1043700058CF0F3F110529F461E086E00E94EC045C
:104380001FC0EEE6F3E0E491E150EF3008F0BDC26B
:10439000F0E0E353FE4D0C94C82FDC2122242724A7
:1043A00031243B2485248524852445244F24592405
:1043B000632470248524782484B5806884BDF7BC88
:1043C00060918904611105C0609188046111609158
:1043D0008E048DE00E94EC0408EE13E020E136E04C
:1043E00046E06BE380910F060E94AE1360911006C9
:1043F00070911106762767277627072E000C880B09
:10440000990B0E94932E6B017C01609112067091B2
:104410001306762767277627072E000C880B990B43
:104420000E94932E4B015C010E94512C688B798B6A
:104430008A8B9B8B609114067091150676276727EF
:104440007627072E000C880B990B0E94932E6C8BFD
:104450007D8B8E8B9F8B0E94512C2B013C01AC01DC
:104460009B01688979898A899B890E94502D0E94C5
:104470002C2F9B01AC01C701B6010E94F02D0E94B8
:10448000BC2D24EE3EE245E652E40E94552C6C879A
:104490007D878E879F87C701B6010E94512C6B01D3
:1044A0007C01AC019B01C301B2010E94502D0E940E
:1044B0002C2F9B01AC01C501B4010E94F02D0E947C
:1044C000BC2D24EE3EE245E652E40E94552C4B0101
:1044D0005C01A7019601688979898A899B890E9474
:1044E000502D0E942C2F2C893D894E895F890E9476
:1044F000F02D0E94BC2D6C8B7D8B8E8B9F8B20E0D2
:1045000030E044EB52EC6C857D858E859F850E9462
:10451000192F87FD21C020E030E040EA51EC6C8586
:104520007D858E859F850E94EB2D1816ACF020E0CE
:1045300030E040EF51ECC501B4010E94192F87FD16
:104540000BC001E020E030E040EF51E4C501B401D0
:104550000E94EB2D18160CF400E020E030E040E75C
:1045600051E46C857D858E859F850E94192F87FD7E
:1045700021C020E030E044EB52E46C857D858E85DF
:104580009F850E94EB2D1816ACF020E030E040EF44
:1045900051ECC501B4010E94192F87FD0BC011E039
:1045A00020E030E040EF51E4C501B4010E94EB2D62
:1045B00018160CF410E08091CE049091CF04A091D5
:1045C000D004B091D104888B998BAA8BBB8B80913E
:1045D000840490918504A0918604B0918704C888D2
:1045E000D988EA88FB88C81AD90AEA0AFB0A4090E7
:1045F000820450908304712C612C8091AC0483332D
:1046000071F4C414D504E604F70410F4011104C0D5
:1046100080918A04882319F084E30E94870C80919A
:10462000AC04843371F4C414D504E604F70410F424
:10463000111104C080918A04882319F08CE30E9430
:10464000870C8091AC04833321F08091AC048433D7
:1046500041F4C414D504E604F70418F08AE50E9476
:10466000870C8091AC048D3311F580917E0490917C
:104670007F04A0918004B0918104488959896A8996
:104680007B89481B590B6A0B7B0B80911801A4E6B0
:104690008A9FC0011124092E000CAA0BBB0B4817DE
:1046A00059076A077B0718F08AE50E94870C8091FA
:1046B000AC048D3321F480918A04811104C080916F
:1046C0008804882361F0088919892A893B89009325
:1046D0007E0410937F0420938004309381048091A2
:1046E000AC048D3349F482EE95E00E940C088823D7
:1046F00019F084E60E94870C8091AC04853671F431
:1047000082EE95E00E940C08882341F080916B01B5
:104710008150823018F489E60E94870C8091AC04A5
:104720008D3349F480ED95E00E940C08882319F040
:104730008EE60E94870C8091AC048F3649F482EE9D
:1047400095E00E940C08882319F080E70E94870CEE
:1047500010917D0480917C04181729F081E01111DB
:1047600080E00E94801410937C048091B104811138
:104770000E94FD0B809156058F3108F4D0C0109235
:104780007B041092BD0580917B0490917A04891777
:1047900019F08111309279048091BD059091BC058A
:1047A000891751F066EA882319F030928C0467EA81
:1047B0008EE196E00E94BB0C80917904882339F049
:1047C0008EEB95E00E940C08811110927904809183
:1047D0008C04882339F08EEB95E00E940C0881113F
:1047E00010928C0480917B0480937A048091BD05A3
:1047F0008093BC058091AD04811106C0809179043D
:10480000811102C080918C04809388048091AC0453
:104810008A3509F4F8C208F0ADC18D3009F44CC2F4
:1048200008F098C08A3009F463C208F083C0882376
:1048300009F451C280E090E0892B09F4E2CA0E9499
:104840000000DFCA84B5806284BDF8BCB9CD809118
:104850008000806880938000109389000093880016
:10486000AFCD8091800080628093800010938B0098
:1048700000938A00A5CD809180008860809380009D
:1048800010938D0000938C009BCD809190008068E8
:1048900080939000109399000093980091CD80919F
:1048A000900080628093900010939B0000939A0088
:1048B00087CD8091900088608093900010939D0038
:1048C00000939C007DCD8091C00080688093C000E3
:1048D0008091C0008F7B8093C000F092CF0070CD9C
:1048E0008091C00080628093C000F092D00068CDBB
:1048F0008091C20088608093C2008091C2008B7F4B
:104900008093C200F092D2005BCD003811050CF00C
:1049100033CD18CD61E086E00E941A0513CD8F30AB
:1049200008F031CF30927B048A3008F02CCF3092DF
:10493000BD0529CF8B3009F40EC28C3009F07ACF37
:104940008EE196E00E942D0F88EE93E00E94720C9B
:104950008DE0CBC1843309F406C2A0F4823309F0A0
:1049600069CF309289048091770490917804019600
:10497000909378048093770484EC99E00E94720C01
:1049800083E3B3C18C3309F4F3C18D3309F052CF03
:104990001091BE0411708091B004811104C0809107
:1049A000AB048823F1F08091C004F090BF040AE0CA
:1049B000602F0E94862FE92E682F80E00E94C30F8F
:1049C0006E2D8EE10E94C30F8F2D602F0E94862FC7
:1049D000092F682F89E40E94C30F602F87E60E9489
:1049E000C30F8091B104112309F44FC78823F9F054
:1049F00000912B0610912C068CE094E00E94680236
:104A000043E06CE38EE196E00E94E80C8BE992E0D3
:104A10000E94BC0F45E06CE38EE196E00E94E80C3A
:104A20008BE992E00E94BC0FC8010E94680280914D
:104A30007B04811104C08091B104811103C0809175
:104A4000AB0481110E94FC0E80917B04882369F0E5
:104A500080919404882349F080919904882329F057
:104A600040E260E080E00E94D90E809194048215BB
:104A700049F080917B04882329F080919904811169
:104A80000E94FC0E8091AB04882351F08091AE040B
:104A90004DE2811101C040E260E086E00E94D90E43
:104AA0008091AB04882349F080917D04882329F00C
:104AB00043E360E08CE00E94D90E8091B004811144
:104AC00005C08091AB04882309F440C040E068E150
:104AD0008EE196E00E94E80C6091BB0470E090E0EB
:104AE00080E04AE00E94570F8EEC92E00E94BC0FDB
:104AF000E091BC04F0E0EE0FFF1FE857FE4F80810D
:104B000091810E94BC0F8AE293E00E94BC0F6091E9
:104B1000BD0470E06053784F072E000C880B990B92
:104B20004AE00E94570F8DE992E00E94BC0FE0918D
:104B3000BA04F0E0EE0FFF1FE858FE4F808191812C
:104B40000E94BC0F8CEE91E00E94BC0F8091AB04E0
:104B5000882309F433C110E08091BE04181708F0CF
:104B60002DC1812F880F42E367E08F5F0E94D90E2D
:104B70001F5FF2CF8A3609F478C408F093C08436F8
:104B800009F44CC108F07DC08B3509F053CE8091FB
:104B9000640081608093640083B7817F846083BFF9
:104BA00083B7816083BF08EE13E09E012F5F3F4F04
:104BB00041E06AE380910F060E94AE138981807400
:104BC000809310068091880481112DC060E08DE0F3
:104BD0000E94EC048EE89CE09093170180931601EC
:104BE0008091730480648093730483B1809357042D
:104BF00080916B00806480936B008091680081607D
:104C00008093680080917D04882361F084E99CE0B2
:104C1000909315018093140180916A008F7C80939A
:104C20006A00EE9A889583B78E7F83BFEE9889E4F9
:104C300094E0909315018093140188E494E090939C
:104C4000170180931601809172048F7B8093720408
:104C5000809173048F7B8093730480916B008F7BB2
:104C600080936B0080916B00811105C0809168007A
:104C70008E7F80936800809164008E7F80936400B3
:104C8000D9CD853609F40CC1893609F0D3CD8EE132
:104C900096E00E942D0F80916B01823009F0E0C3F5
:104CA0008AE623C08E3609F4A4C468F48C3609F46D
:104CB00099C48D3609F0BECDC414D504E604F704BA
:104CC00008F4B8CD06C08F3609F4D9C4803709F08E
:104CD000B1CD8CE30AC06FEA8EE196E00E94BB0C76
:104CE0008EE196E00E942D0F8AE00E94870CA2CDF3
:104CF00040E060E28EE196E00E94E80C30922E06E1
:104D000089E892E00E94BC0F47E063E18EE196E003
:104D10000E94E80C8EE893E00E94BE0E8AE293E0C7
:104D20000E94BC0F87E893E00E94BE0E43E06CE156
:104D30008EE196E00E94E80C82E080932E0684E9E2
:104D400092E00E94BC0F30922E0684EC99E00E9403
:104D5000720C8BE0CACF8CE0C414D504E604F704CF
:104D600008F468CDC2CF80919B048093890462CD02
:104D7000109289040E94320660937E0470937F042F
:104D800080938004909381046FEA8EE196E00E9404
:104D9000BB0C8EE196E00E942D0F3092AB04809107
:104DA0007604843349F480917404909175040196DB
:104DB00090937504809374048DE397CF8091BE0423
:104DC00081110EC08091B104882351F047E060E06A
:104DD0008EE196E00E94E80C8EE196E00E942E0D96
:104DE0008091B104811104C08091AB04882341F00B
:104DF0008091BE04880F42E367E08F5F0E94D90E66
:104E00001092AB0417CD8EE196E00E942D0F6EEA52
:104E10008EE196E00E94BB0C8BE567CF30926B0170
:104E20002C853D854E855F8520936E0430936F04FD
:104E3000409370045093710480926A0490926B04C2
:104E4000A0926C04B0926D048091BD0480933B01EC
:104E50008091BC04809337018091BB04809333011F
:104E60008091C00480932B018091BF0480932F0117
:104E7000809118018093530180917D0480935B01A0
:104E80008091C10480935701EDE1F1E013823496E3
:104E900031E0ED35F307D1F71092690485E625CFAF
:104EA000C0906A04D0906B04E0906C04F0906D04A4
:104EB00020E030E040EA50E4C701B6010E94502DE6
:104EC000688B798B8A8B9B8B20E030E040EA50E442
:104ED000C701B6010E944F2D2B013C01C0906E040A
:104EE000D0906F04E0907004F090710420E030E006
:104EF00040E252E4C701B6010E944F2D9B01AC0174
:104F00006C857D858E859F850E94192F87FD25C024
:104F100020E030E040E251E4C701B6010E944F2D8D
:104F20009B01AC016C857D858E859F850E94EB2D54
:104F300018169CF0A3019201C501B4010E94192F1B
:104F400087FD0BC011E0288939894A895B89C50131
:104F5000B4010E94EB2D18160CF410E020E030E0B4
:104F600040E251E4C701B6010E94502D9B01AC0103
:104F70006C857D858E859F850E94192F87FD25C0B4
:104F800020E030E040E252E4C701B6010E94502D1B
:104F90009B01AC016C857D858E859F850E94EB2DE4
:104FA00018169CF0A3019201C501B4010E94192FAB
:104FB00087FD0BC001E0288939894A895B89C501D1
:104FC000B4010E94EB2D18160CF400E082EE95E07F
:104FD0000E940C08882371F080916B0183508D3002
:104FE00048F480916904882329F08091680482251F
:104FF0008093680482EE95E00E940C088823D9F023
:10500000809168048823B9F08FEF80932D0643E0E8
:1050100066E08EE196E00E94E80CE0916B0144E0CE
:10502000E49FF0011124E35EFE4F808191810E9494
:10503000BC0F10922D0682EE95E00E940C0888238A
:10504000B1F080916804811112C043E066E08EE106
:1050500096E00E94E80CE0916B0154E0E59FF001BE
:105060001124E35EFE4F808191810E94BC0FF0907D
:105070006804F1102AC080ED95E00E940C088111AF
:105080000AC0111104C08091C904882349F080919D
:105090009904882329F080916B01815080936B01E2
:1050A0008EEB95E00E940C0881110AC0011104C02A
:1050B0008091C404882349F080919904882329F0C1
:1050C00080916B018F5F80936B0180916B018031C8
:1050D00010F030926B0180916B01811103C08FE061
:1050E00080936B01D0906B0181E09091BB059D1185
:1050F00001C080E080936704D092BB05FF2009F4D3
:105100008EC08DEF8D0D8D3008F089C080ED95E05B
:105110000E940C08ED2CF12C81110AC0111104C061
:105120008091C904882379F08091A004882359F0E4
:10513000F701EE0FFF1FEE0FFF1FE35EFE4F8281B0
:105140008F5F828323828EEB95E00E940C08811191
:105150000AC0011104C08091C404882379F08091B1
:10516000A004882359F0F701EE0FFF1FEE0FFF1F79
:10517000E35EFE4F8281815082832382ECEFED0D4E
:10518000EC3088F4F0E0E953F74D0C94C82F9F29D8
:10519000A729B629C529FB29032A0B2A132A212A64
:1051A000D529EC29E42980912B01883110F0109247
:1051B0002B01809157018093C104F701EE0FFF1F6F
:1051C000EE0FFF1FE35EFE4F828190916604809395
:1051D0006604891721F143E06AE58EE196E00E94BA
:1051E000E80CE0916B0184E0E89FF0011124E35E9C
:1051F000FE4F82811F928F93AFE1B3E0BF93AF93D5
:105200000CE514E01F930F930E942330C8010E9405
:10521000BC0F0F900F900F900F900F900F908091F8
:105220006904811108C08EE196E00E942D0F80EA8A
:1052300092E00E94BC0F80916704882321F0809146
:105240006804882321F080916904811163C043E0E0
:1052500060E08EE196E00E94E80C86EA92E00E940F
:10526000BC0F0EEF1FEF33E0F32EF00E4F2D66E074
:105270008EE196E00E94E80C8EE196E00E942E0DF1
:1052800080916B01800F912F911D9C01215031095C
:105290002F303105C8F5880F991F880F991FFC0121
:1052A000E35EFE4F808191810E94BC0F80916B0173
:1052B0008350800F8D3040F54F2D6AE58EE196E0EA
:1052C0000E94E80CE0916B01E00FF12FF11DEE0F51
:1052D000FF1FEE0FFF1FE35EFE4F82811F928F9331
:1052E0004FE153E05F934F93ACE5B4E0BF93AF93CE
:1052F0000E9423308CE594E00E94BC0F0F900F9029
:105300000F900F900F900F900F5F1F4F03301105FC
:1053100009F0A9CF3092690447E060E08EE196E0A1
:105320000E94E80C88EA92E00E94BC0F6091AF04F2
:1053300070E090E080E04AE00E94570F7BCA8091C5
:105340002F018C3308F435CF10922F0132CF80918A
:105350003301811103C08FE18093330180913301C8
:10536000803208F426CF3092330123CF8091370169
:10537000811103C08CE080933701809137018D301B
:1053800008F417CF3092370114CF80913B0183315D
:1053900018F483E680933B0180913B01843608F446
:1053A00008CF83E180933B0104CF809153018111A9
:1053B00003C083E68093530180915301843608F43F
:1053C000F8CE30925301F5CE80915B01823008F423
:1053D000F0CE10925B01EDCE80915701811103C098
:1053E00089E180935701809157018A3108F4E1CE19
:1053F00030925701DECE80913F01823008F4D9CE41
:1054000010923F01D6CE80914301883108F4D1CE6D
:1054100010924301CECE809147018C3308F4C9CE5F
:1054200010924701C6CE80914B01811103C08FE7D6
:1054300080934B0180914B0187FFBBCE30924B0193
:10544000B8CE80914F01811103C086E080934F0157
:1054500080914F01873008F4ACCE30924F01A9CE35
:10546000813009F0E7C98CE640CC85EB92E00E94E0
:105470003A1180912C01811110C08091300181116D
:105480000CC080913401811108C0809138018111D4
:1054900004C080913C018823A9F080912B018B836B
:1054A00080912F018A831982809133018D838091AD
:1054B00037018E8380913B01825E8F83CE010196FE
:1054C0000E94BD1180914401882331F06091430115
:1054D00087E090E00E94311580914801882331F0E7
:1054E0006091470188E090E00E94311580914C0165
:1054F000882331F060914B0189E090E00E943115E2
:1055000080915001882331F060914F018AE090E052
:105510000E9431158091440181110CC08091480195
:10552000811108C080914C01811104C0809150010B
:105530008823B9F020914B014091430160914701CC
:10554000E0914F01E15088E090E0E63028F4F0E08F
:10555000EE55FE4F808190E00E94520B81E00E9448
:105560008B1280914001882361F060913F0186E0B9
:1055700090E00E94311580913F01882381F10E94C3
:105580007A1280915401882341F060915301609315
:10559000180182E090E00E94311580915C0188231F
:1055A00061F060915B0181E0611101C080E0809356
:1055B0007D0484E090E00E94311580915801882399
:1055C00041F0609157016093C10485E090E00E9432
:1055D000311588EB9BE00E94720C8DE686CB0E9411
:1055E0006F12CFCF86EC92E00E943A1188EE93E0E2
:1055F000F2CF3092AB048EE196E00E942D0F80ED49
:1056000092E00E94BC0F42E066E08EE196E00E94CC
:10561000E80C88ED92E00E94BC0F0E948714811173
:105620001EC043E066E08EE196E00E94E80C81EE49
:1056300092E00E94BC0F43E068E48EE196E00E9495
:10564000E80C89EE92E00E94BC0F45E066E08EE136
:1056500096E00E94E80C81EF92E00E94BC0F0E944D
:105660008714882351F045E06CE08EE196E00E94BB
:10567000E80C83E093E00E94BC0F8FE636CB80916C
:10568000C904882391F00E9448116093B604709376
:10569000B7048093B8049093B904109278041092E0
:1056A000770410927504109274048091B1048111F2
:1056B00005C08091AB04882309F4A2CB8091BE047D
:1056C0001F928F938091BF041F928F938091C0048B
:1056D0001F928F9385E193E09F938F930CE514E0E5
:1056E0001F930F930E94233040E060E58EE196E027
:1056F0000E94E80CC8010E94BC0FC090B204D09078
:10570000B304E090B404F090B504C701B6012CE3F3
:1057100030E040E050E00E94A62FCA01B9012CE31E
:1057200030E040E050E00E94A62F7F936F93C701C6
:10573000B60120E13EE040E050E00E94A62F3F93FA
:105740002F938AE193E09F938F93A8015F930F9328
:105750000E94233042E066E38EE196E00E94E80C6E
:10576000C8010E94BC0F0E9487140FB6F894DEBFD8
:105770000FBECDBF811164C043E060E38EE196E0CF
:105780000E94E80C609177047091780490E080E0CA
:105790004AE00E94570F43E062E78EE196E00E94E4
:1057A000E80C609174047091750490E080E04AE028
:1057B0000E94570F46E066E08EE196E00E94E80CFA
:1057C00084E293E00E94BC0F46E060E38EE196E045
:1057D0000E94E80C84E293E00E94BC0F46E06AE578
:1057E0008EE196E00E94E80C84E293E00E94BC0FF8
:1057F00046E066E08EE196E00E94E80C6C857D85CF
:105800008E859F850E94E01246E060E38EE196E07F
:105810000E94E80CC501B4010E94E01246E06AE56E
:105820008EE196E00E94E80C24EE3EE245E652E46A
:105830006C897D898E899F890E94552C0E94E01277
:1058400047E06AE08EE196E00E94E80C8CE293E08B
:105850000E94BC0F609158047091590480915A04C1
:1058600090915B040E94E01285E393E00E94BC0FDC
:105870006091560570E090E080E04AE00E94570F8A
:1058800088E393E00E94BC0FBBCA882309F4CFC809
:1058900005E023E040E46CE38EE196E00E94FA0C20
:1058A000C6C89B01AC010C94552C0E94682C0C942A
:1058B000D92C0E94CB2C38F00E94D22C20F09523BA
:1058C00011F00C94C22C0C94C82C11240C940D2DA6
:1058D0000E94EA2C70F3959FC1F3950F50E0551F7D
:1058E000629FF001729FBB27F00DB11D639FAA2735
:1058F000F00DB11DAA1F649F6627B00DA11D661F84
:10590000829F2227B00DA11D621F739FB00DA11DA4
:10591000621F839FA00D611D221F749F3327A00D5E
:10592000611D231F849F600D211D822F762F6A2FFA
:1059300011249F5750409AF0F1F088234AF0EE0F5F
:10594000FF1FBB1F661F771F881F91505040A9F78C
:105950009E3F510580F00C94C22C0C940D2D5F3F9E
:10596000E4F3983ED4F3869577956795B795F795C8
:10597000E7959F5FC1F7FE2B880F911D9695879540
:1059800097F9089597F99F6780E870E060E00895BF
:105990009FEF80EC089500240A9416161706180647
:1059A0000906089500240A94121613061406050623
:1059B0000895092E0394000C11F4882352F0BB0FB4
:1059C00040F4BF2B11F460FF04C06F5F7F4F8F4F17
:1059D0009F4F089557FD9058440F551F59F05F3F52
:1059E00071F04795880F97FB991F61F09F3F79F001
:1059F00087950895121613061406551FF2CF469583
:105A0000F1DF08C0161617061806991FF1CF869504
:105A10007105610508940895E894BB2766277727E8
:105A2000CB0197F90895FC0188279927E8942191E3
:105A30002032E9F3293010F02E30C8F32B3241F038
:105A40002D3239F4689404C00E94312D820F911DCB
:105A5000219120532A30C0F31EF4909581959F4FD9
:105A600008957AE0979F902D879F802D910D1124A6
:105A70000895F999FECF92BD81BDF89A992780B516
:105A80000895262FF999FECF1FBA92BD81BD20BD82
:105A90000FB6F894FA9AF99A0FBE019608955058E5
:105AA000BB27AA270E94672D0C94D92C0E94CB2CCF
:105AB00038F00E94D22C20F039F49F3F19F426F4DC
:105AC0000C94C82C0EF4E095E7FB0C94C22CE92F43
:105AD0000E94EA2C58F3BA176207730784079507E8
